{
  "contractName": "PreciseProofCommitmentRegistry",
  "abi": [
    {
      "anonymous": false,
      "inputs": [
        {
          "indexed": true,
          "name": "by",
          "type": "address"
        },
        {
          "indexed": true,
          "name": "name",
          "type": "string"
        }
      ],
      "name": "NewCommitment",
      "type": "event"
    },
    {
      "constant": false,
      "inputs": [
        {
          "name": "_name",
          "type": "string"
        },
        {
          "name": "_hash",
          "type": "string"
        },
        {
          "name": "_schema",
          "type": "string"
        }
      ],
      "name": "commitment",
      "outputs": [
        {
          "name": "",
          "type": "bool"
        }
      ],
      "payable": false,
      "stateMutability": "nonpayable",
      "type": "function"
    },
    {
      "constant": true,
      "inputs": [
        {
          "name": "_by",
          "type": "address"
        },
        {
          "name": "_name",
          "type": "string"
        }
      ],
      "name": "getCommitment",
      "outputs": [
        {
          "name": "",
          "type": "string"
        },
        {
          "name": "",
          "type": "string"
        }
      ],
      "payable": false,
      "stateMutability": "view",
      "type": "function"
    },
    {
      "constant": true,
      "inputs": [
        {
          "name": "_by",
          "type": "address"
        },
        {
          "name": "_name",
          "type": "string"
        },
        {
          "name": "_hash",
          "type": "string"
        }
      ],
      "name": "checkCommitment",
      "outputs": [
        {
          "name": "",
          "type": "bool"
        }
      ],
      "payable": false,
      "stateMutability": "view",
      "type": "function"
    }
  ],
  "bytecode": "0x608060405234801561001057600080fd5b50610719806100206000396000f3006080604052600436106100565763ffffffff7c0100000000000000000000000000000000000000000000000000000000600035041663023211f9811461005b578063b16ecba514610144578063be66f5c61461024f575b600080fd5b34801561006757600080fd5b506040805160206004803580820135601f810184900484028501840190955284845261013094369492936024939284019190819084018382808284375050604080516020601f89358b018035918201839004830284018301909452808352979a99988101979196509182019450925082915084018382808284375050604080516020601f89358b018035918201839004830284018301909452808352979a9998810197919650918201945092508291508401838280828437509497506102889650505050505050565b604080519115158252519081900360200190f35b34801561015057600080fd5b5061017160048035600160a060020a031690602480359081019101356103c5565b604051808060200180602001838103835285818151815260200191508051906020019080838360005b838110156101b257818101518382015260200161019a565b50505050905090810190601f1680156101df5780820380516001836020036101000a031916815260200191505b50838103825284518152845160209182019186019080838360005b838110156102125781810151838201526020016101fa565b50505050905090810190601f16801561023f5780820380516001836020036101000a031916815260200191505b5094505050505060405180910390f35b34801561025b57600080fd5b5061013060048035600160a060020a0316906024803580820192908101359160443590810191013561057c565b604080518082018252838152602080820184905233600090815280825283812093518751919492889282918401908083835b602083106102d95780518252601f1990920191602091820191016102ba565b51815160209384036101000a600019018019909216911617905292019485525060405193849003810190932084518051919461031a94508593500190610652565b5060208281015180516103339260018501920190610652565b50905050836040518082805190602001908083835b602083106103675780518252601f199092019160209182019101610348565b5181516020939093036101000a60001901801990911692169190911790526040519201829003822093503392507ffb96e875b9f7ce813ca0f8bb77132ddb3c7a4833f21db7c72ad6bc49f728afdc9160009150a35060019392505050565b60608060008086600160a060020a0316600160a060020a03168152602001908152602001600020848460405180838380828437820191505092505050908152602001604051809103902060000160008087600160a060020a0316600160a060020a03168152602001908152602001600020858560405180838380828437919091019485525050604080516020948190038501812086546002600180831615610100026000190190921604601f810188900488028401880190945283835201949093508592508301828280156104db5780601f106104b0576101008083540402835291602001916104db565b820191906000526020600020905b8154815290600101906020018083116104be57829003601f168201915b5050845460408051602060026001851615610100026000190190941693909304601f8101849004840282018401909252818152959750869450925084019050828280156105695780601f1061053e57610100808354040283529160200191610569565b820191906000526020600020905b81548152906001019060200180831161054c57829003601f168201915b5050505050905091509150935093915050565b600082826040518083838082843760408051939091018390038320600160a060020a038d16600090815260208190529190912090955093508992508891905080838380828437820191505092505050908152602001604051809103902060000160405180828054600181600116156101000203166002900480156106375780601f10610615576101008083540402835291820191610637565b820191906000526020600020905b815481529060010190602001808311610623575b50506040519081900390209290921498975050505050505050565b828054600181600116156101000203166002900490600052602060002090601f016020900481019282601f1061069357805160ff19168380011785556106c0565b828001600101855582156106c0579182015b828111156106c05782518255916020019190600101906106a5565b506106cc9291506106d0565b5090565b6106ea91905b808211156106cc57600081556001016106d6565b905600a165627a7a72305820e77c9f9435c68b77e95f3cc6c3e3e1fcf82abe445878f28d04a8d4feced9287b0029",
  "source": "pragma solidity ^0.4.24;\n\n\n// This is only for demonstration purposes\n// Not made for production\ncontract PreciseProofCommitmentRegistry {\n\n    struct Commitment {\n        string merkleRoot;\n        string schema;\n    }\n\n    event NewCommitment(address indexed by, string indexed name);\n\n    mapping(address => mapping(string => Commitment)) internal commitments;\n\n    function commitment(string _name, string _hash, string _schema) public returns (bool) {\n        commitments[msg.sender][_name] = Commitment(_hash, _schema);\n        emit NewCommitment(msg.sender, _name);\n        return true;\n    }\n\n    function getCommitment(address _by, string _name) external view returns (string, string) {\n        return (commitments[_by][_name].merkleRoot, commitments[_by][_name].schema);\n    }\n\n    function checkCommitment(address _by, string _name, string _hash) external view returns (bool) {\n        return (keccak256(bytes(commitments[_by][_name].merkleRoot)) == keccak256(bytes(_hash)));\n    }\n}",
  "sourcePath": "/home/aznagy/work/precise-proofs/contracts/PreciseProofCommitmentRegistry.sol",
  "compiler": {
    "name": "solc",
    "version": "0.4.24+commit.e67f0147.Emscripten.clang"
  },
  "schemaVersion": "2.0.1",
  "updatedAt": "2018-12-10T14:02:06.332Z"
}