{
  "contractName": "PreciseProofCommitmentRegistry",
  "abi": [
    {
      "anonymous": false,
      "inputs": [
        {
          "indexed": true,
          "internalType": "address",
          "name": "by",
          "type": "address"
        },
        {
          "indexed": true,
          "internalType": "string",
          "name": "name",
          "type": "string"
        }
      ],
      "name": "NewCommitment",
      "type": "event"
    },
    {
      "constant": false,
      "inputs": [
        {
          "internalType": "string",
          "name": "_name",
          "type": "string"
        },
        {
          "internalType": "string",
          "name": "_hash",
          "type": "string"
        },
        {
          "internalType": "string",
          "name": "_schema",
          "type": "string"
        }
      ],
      "name": "commitment",
      "outputs": [
        {
          "internalType": "bool",
          "name": "",
          "type": "bool"
        }
      ],
      "payable": false,
      "stateMutability": "nonpayable",
      "type": "function"
    },
    {
      "constant": true,
      "inputs": [
        {
          "internalType": "address",
          "name": "_by",
          "type": "address"
        },
        {
          "internalType": "string",
          "name": "_name",
          "type": "string"
        }
      ],
      "name": "getCommitment",
      "outputs": [
        {
          "internalType": "string",
          "name": "",
          "type": "string"
        },
        {
          "internalType": "string",
          "name": "",
          "type": "string"
        }
      ],
      "payable": false,
      "stateMutability": "view",
      "type": "function"
    },
    {
      "constant": true,
      "inputs": [
        {
          "internalType": "address",
          "name": "_by",
          "type": "address"
        },
        {
          "internalType": "string",
          "name": "_name",
          "type": "string"
        },
        {
          "internalType": "string",
          "name": "_hash",
          "type": "string"
        }
      ],
      "name": "checkCommitment",
      "outputs": [
        {
          "internalType": "bool",
          "name": "",
          "type": "bool"
        }
      ],
      "payable": false,
      "stateMutability": "view",
      "type": "function"
    }
  ],
  "bytecode": "0x608060405234801561001057600080fd5b50610a5b806100206000396000f3fe608060405234801561001057600080fd5b50600436106100415760003560e01c8063023211f914610046578063b16ecba514610247578063be66f5c6146103c5575b600080fd5b61022d6004803603606081101561005c57600080fd5b810190808035906020019064010000000081111561007957600080fd5b82018360208201111561008b57600080fd5b803590602001918460018302840111640100000000831117156100ad57600080fd5b91908080601f016020809104026020016040519081016040528093929190818152602001838380828437600081840152601f19601f8201169050808301925050505050505091929192908035906020019064010000000081111561011057600080fd5b82018360208201111561012257600080fd5b8035906020019184600183028401116401000000008311171561014457600080fd5b91908080601f016020809104026020016040519081016040528093929190818152602001838380828437600081840152601f19601f820116905080830192505050505050509192919290803590602001906401000000008111156101a757600080fd5b8201836020820111156101b957600080fd5b803590602001918460018302840111640100000000831117156101db57600080fd5b91908080601f016020809104026020016040519081016040528093929190818152602001838380828437600081840152601f19601f8201169050808301925050505050505091929192905050506104cb565b604051808215151515815260200191505060405180910390f35b6102de6004803603604081101561025d57600080fd5b81019080803573ffffffffffffffffffffffffffffffffffffffff1690602001909291908035906020019064010000000081111561029a57600080fd5b8201836020820111156102ac57600080fd5b803590602001918460018302840111640100000000831117156102ce57600080fd5b9091929391929390505050610673565b604051808060200180602001838103835285818151815260200191508051906020019080838360005b83811015610322578082015181840152602081019050610307565b50505050905090810190601f16801561034f5780820380516001836020036101000a031916815260200191505b50838103825284818151815260200191508051906020019080838360005b8381101561038857808201518184015260208101905061036d565b50505050905090810190601f1680156103b55780820380516001836020036101000a031916815260200191505b5094505050505060405180910390f35b6104b1600480360360608110156103db57600080fd5b81019080803573ffffffffffffffffffffffffffffffffffffffff1690602001909291908035906020019064010000000081111561041857600080fd5b82018360208201111561042a57600080fd5b8035906020019184600183028401116401000000008311171561044c57600080fd5b90919293919293908035906020019064010000000081111561046d57600080fd5b82018360208201111561047f57600080fd5b803590602001918460018302840111640100000000831117156104a157600080fd5b9091929391929390505050610886565b604051808215151515815260200191505060405180910390f35b60006040518060400160405280848152602001838152506000803373ffffffffffffffffffffffffffffffffffffffff1673ffffffffffffffffffffffffffffffffffffffff168152602001908152602001600020856040518082805190602001908083835b602083106105545780518252602082019150602081019050602083039250610531565b6001836020036101000a038019825116818451168082178552505050505050905001915050908152602001604051809103902060008201518160000190805190602001906105a3929190610981565b5060208201518160010190805190602001906105c0929190610981565b50905050836040518082805190602001908083835b602083106105f857805182526020820191506020810190506020830392506105d5565b6001836020036101000a03801982511681845116808217855250505050505090500191505060405180910390203373ffffffffffffffffffffffffffffffffffffffff167ffb96e875b9f7ce813ca0f8bb77132ddb3c7a4833f21db7c72ad6bc49f728afdc60405160405180910390a3600190509392505050565b6060806000808673ffffffffffffffffffffffffffffffffffffffff1673ffffffffffffffffffffffffffffffffffffffff168152602001908152602001600020848460405180838380828437808301925050509250505090815260200160405180910390206000016000808773ffffffffffffffffffffffffffffffffffffffff1673ffffffffffffffffffffffffffffffffffffffff16815260200190815260200160002085856040518083838082843780830192505050925050509081526020016040518091039020600101818054600181600116156101000203166002900480601f0160208091040260200160405190810160405280929190818152602001828054600181600116156101000203166002900480156107d75780601f106107ac576101008083540402835291602001916107d7565b820191906000526020600020905b8154815290600101906020018083116107ba57829003601f168201915b50505050509150808054600181600116156101000203166002900480601f0160208091040260200160405190810160405280929190818152602001828054600181600116156101000203166002900480156108735780601f1061084857610100808354040283529160200191610873565b820191906000526020600020905b81548152906001019060200180831161085657829003601f168201915b5050505050905091509150935093915050565b6000828260405180838380828437808301925050509250505060405180910390206000808873ffffffffffffffffffffffffffffffffffffffff1673ffffffffffffffffffffffffffffffffffffffff1681526020019081526020016000208686604051808383808284378083019250505092505050908152602001604051809103902060000160405180828054600181600116156101000203166002900480156109685780601f10610946576101008083540402835291820191610968565b820191906000526020600020905b815481529060010190602001808311610954575b5050915050604051809103902014905095945050505050565b828054600181600116156101000203166002900490600052602060002090601f016020900481019282601f106109c257805160ff19168380011785556109f0565b828001600101855582156109f0579182015b828111156109ef5782518255916020019190600101906109d4565b5b5090506109fd9190610a01565b5090565b610a2391905b80821115610a1f576000816000905550600101610a07565b5090565b9056fea265627a7a7231582009da97d958813935cc08c94297433f5f4838b8bd96931fb087f79f525a8ebd1d64736f6c634300050c0032",
  "source": "pragma solidity ^0.5.12;\n\n\n// This is only for demonstration purposes\n// Not made for production\ncontract PreciseProofCommitmentRegistry {\n\n    struct Commitment {\n        string merkleRoot;\n        string schema;\n    }\n\n    event NewCommitment(address indexed by, string indexed name);\n\n    mapping(address => mapping(string => Commitment)) internal commitments;\n\n    function commitment(string memory _name, string memory _hash, string memory _schema) public returns (bool) {\n        commitments[msg.sender][_name] = Commitment(_hash, _schema);\n        emit NewCommitment(msg.sender, _name);\n        return true;\n    }\n\n    function getCommitment(address _by, string calldata _name) external view returns (string memory, string memory) {\n        return (commitments[_by][_name].merkleRoot, commitments[_by][_name].schema);\n    }\n\n    function checkCommitment(address _by, string calldata _name, string calldata _hash) external view returns (bool) {\n        return (keccak256(bytes(commitments[_by][_name].merkleRoot)) == keccak256(bytes(_hash)));\n    }\n}",
  "sourcePath": "/Users/piotrkosinski/Projects/ewf/precise-proofs/contracts/PreciseProofCommitmentRegistry.sol",
  "compiler": {
    "name": "solc",
    "version": "0.5.12+commit.7709ece9.Emscripten.clang"
  },
  "schemaVersion": "3.0.19",
  "updatedAt": "2019-12-10T14:50:01.735Z",
  "networkType": "ethereum",
  "devdoc": {
    "methods": {}
  },
  "userdoc": {
    "methods": {}
  }
}