{
  "contractName": "Verifier",
  "abi": [
    {
      "constant": true,
      "inputs": [
        {
          "internalType": "string",
          "name": "key",
          "type": "string"
        },
        {
          "internalType": "string",
          "name": "value",
          "type": "string"
        },
        {
          "internalType": "string",
          "name": "salt",
          "type": "string"
        },
        {
          "internalType": "bytes32",
          "name": "rootHash",
          "type": "bytes32"
        },
        {
          "components": [
            {
              "internalType": "bool",
              "name": "left",
              "type": "bool"
            },
            {
              "internalType": "bytes32",
              "name": "hash",
              "type": "bytes32"
            }
          ],
          "internalType": "struct Verifier.Proof[]",
          "name": "proof",
          "type": "tuple[]"
        }
      ],
      "name": "verify",
      "outputs": [
        {
          "internalType": "bool",
          "name": "",
          "type": "bool"
        }
      ],
      "payable": false,
      "stateMutability": "pure",
      "type": "function"
    }
  ],
  "bytecode": "0x608060405234801561001057600080fd5b50610525806100206000396000f3fe608060405234801561001057600080fd5b506004361061002b5760003560e01c8063c6ae06a814610030575b600080fd5b61004361003e366004610281565b610059565b60405161005091906103f7565b60405180910390f35b600080868686604051602001610071939291906103ca565b60408051601f198184030181529190528051602090910120905060005b835181101561012a5761009f610137565b8482815181106100ab57fe5b602002602001015190508060000151156100f1576020808201516040516100d4928691016103a4565b604051602081830303815290604052805190602001209250610121565b8281602001516040516020016101089291906103a4565b6040516020818303038152906040528051906020012092505b5060010161008e565b5090921495945050505050565b604080518082019091526000808252602082015290565b600082601f83011261015f57600080fd5b813561017261016d8261042c565b610405565b9150818183526020840193506020810190508385604084028201111561019757600080fd5b60005b838110156101c557816101ad888261023a565b8452506020909201916040919091019060010161019a565b5050505092915050565b80356101da816104c2565b92915050565b80356101da816104d9565b600082601f8301126101fc57600080fd5b813561020a61016d8261044d565b9150808252602083016020830185838301111561022657600080fd5b610231838284610486565b50505092915050565b60006040828403121561024c57600080fd5b6102566040610405565b9050600061026484846101cf565b8252506020610275848483016101e0565b60208301525092915050565b600080600080600060a0868803121561029957600080fd5b853567ffffffffffffffff8111156102b057600080fd5b6102bc888289016101eb565b955050602086013567ffffffffffffffff8111156102d957600080fd5b6102e5888289016101eb565b945050604086013567ffffffffffffffff81111561030257600080fd5b61030e888289016101eb565b935050606061031f888289016101e0565b925050608086013567ffffffffffffffff81111561033c57600080fd5b6103488882890161014e565b9150509295509295909350565b61035e8161047e565b82525050565b61035e61037082610483565b610483565b600061038082610475565b61038a8185610479565b935061039a818560208601610492565b9290920192915050565b60006103b08285610364565b6020820191506103c08284610364565b5060200192915050565b60006103d68286610375565b91506103e28285610375565b91506103ee8284610375565b95945050505050565b602081016101da8284610355565b60405181810167ffffffffffffffff8111828210171561042457600080fd5b604052919050565b600067ffffffffffffffff82111561044357600080fd5b5060209081020190565b600067ffffffffffffffff82111561046457600080fd5b506020601f91909101601f19160190565b5190565b919050565b151590565b90565b82818337506000910152565b60005b838110156104ad578181015183820152602001610495565b838111156104bc576000848401525b50505050565b6104cb8161047e565b81146104d657600080fd5b50565b6104cb8161048356fea365627a7a72315820edc32e4e2bf6d7eaa64aeecafb8f0e07880a5c117239f42ce4a8c5cdeded7e086c6578706572696d656e74616cf564736f6c634300050c0040",
  "source": "pragma solidity ^0.5.12;\npragma experimental ABIEncoderV2;\n\ncontract Verifier {\n  struct Proof {\n      bool left;\n      bytes32 hash;\n    }\n\n    function verify(string memory key, string memory value, string memory salt, bytes32 rootHash, Proof[] memory proof) public pure returns (bool) {\n        bytes32 hash = keccak256(abi.encodePacked(key, value, salt));\n        \n        for(uint i=0; i<proof.length; i++) {\n            Proof memory p = proof[i];\n            if (p.left) {\n                hash = keccak256(abi.encodePacked(p.hash, hash));\n            } else {\n                hash = keccak256(abi.encodePacked(hash, p.hash));\n            }\n        }\n        \n        return rootHash == hash;\n    }\n}",
  "sourcePath": "/Users/piotrkosinski/Projects/ewf/precise-proofs/contracts/Verifier.sol",
  "compiler": {
    "name": "solc",
    "version": "0.5.12+commit.7709ece9.Emscripten.clang"
  },
  "schemaVersion": "3.0.19",
  "updatedAt": "2019-12-11T08:32:56.036Z",
  "devdoc": {
    "methods": {}
  },
  "userdoc": {
    "methods": {}
  }
}